:100000000C9435010C9466010C9466010C94660105
:100010000C9466010C9466010C9466010C946601C4
:100020000C9466010C9466010C9466010C946601B4
:100030000C9466010C9466010C9466010C946601A4
:100040000C9466010C9466010C9466010C94660194
:100050000C9466010C9466010C9466010C943605B0
:100060000C9466010C9400050C94D6040C94660163
:100070000C9466010C9466010C9466010C94660164
:100080000C9466010C9466010C9466010C94660154
:100090000C9466010C9466010C9466010C94660144
:1000A0000C9466010C9466010C9466010C94660134
:1000B0000C9466010C9466010C9466010C94660124
:1000C0000C9466010C9466010C9466010C94660114
:1000D0000C9466010C9466010C9466010C94660104
:1000E0000C9466010C94E3020C94D9020C949501D3
:1000F0000C94D5020C94DF020C94F5020C94E702E8
:100100000C94F1020C94FB020C94B8010C94C802FC
:100110000C94ED020C94CC020C94FF020C94FA02A5
:100120000C94FE010C94A4010C94CF020C94BA021E
:100130000C94C6010C94C0020C9420070C94680126
:100140000C944B020C94C4020000210024002700F0
:100150002A002D00300033000101000004010701D6
:100160000A0100002200250028002B002E0031008B
:10017000340002010000050108010B01000020000D
:100180002300260029002C002F003200000100006F
:10019000030106010901050505050705080808080A
:1001A000020202020A0A080804040404010101010F
:1001B000010101010303030303030303040707070A
:1001C0000C0C0C0C0C0C0C0C0202020206060606AF
:1001D000060606060B0B0B0B0B0B0B0B010210207C
:1001E000200808102040102040800201020108046D
:1001F0000201010204081020408080402010080401
:100200000201800402018040201008040201080459
:10021000020101020408102040800102040810209D
:10022000408000000A0B02090C0D0E0807030401B0
:1002300000000000000000000000000000000000BE
:10024000000000000000000000000000000012118B
:10025000100000000000000000000000000000008E
:100260000000000000000000200711241FBECFEF97
:10027000D1E2DEBFCDBF00E00CBF12E0A0E0B2E0F3
:10028000EAE6F3E100E00BBF02C007900D92AC3349
:10029000B107D9F722E0ACE3B2E001C01D92AF3E56
:1002A000B207E1F711E0C5E3D1E000E006C0219715
:1002B0000109802FFE010E94AB09C433D10780E001
:1002C0000807A9F70E9480050C94B3090C9400005C
:1002D000AF92BF92CF92DF92EF92FF920F931F9354
:1002E000CF93DF936C017B018B01040F151FEB0192
:1002F0005E01AE18BF08C017D10759F06991D60149
:10030000ED91FC910190F081E02DC6011995892BAA
:1003100079F7C501DF91CF911F910F91FF90EF9079
:10032000DF90CF90BF90AF900895FC01538D448D26
:10033000252F30E0842F90E0821B930B541710F090
:10034000CF96089501970895FC01918D828D98179D
:1003500061F0A28DAE0FBF2FB11D5D968C91928D75
:100360009F5F9F73928F90E008958FEF9FEF0895A6
:10037000FC01918D828D981731F0828DE80FF11D6F
:10038000858D90E008958FEF9FEF0895FC01918D8A
:10039000228D892F90E0805C9F4F821B91098F7383
:1003A0009927089582E592E00E94C60121E0892BF9
:1003B00009F420E0822F0895FC01A48DA80FB92F25
:1003C000B11DA35ABF4F2C91848D90E001968F737D
:1003D0009927848FA689B7892C93A089B1898C919C
:1003E000837080648C93938D848D981306C00288EB
:1003F000F389E02D80818F7D80830895EF92FF92B5
:100400000F931F93CF93DF93EC0181E0888F9B8D37
:100410008C8D98131AC0E889F989808185FF15C0F1
:100420009FB7F894EE89FF896083E889F989808114
:100430008370806480839FBF81E090E0DF91CF91E3
:100440001F910F91FF90EF900895F62E0B8D10E005
:100450000F5F1F4F0F731127E02E8C8D8E110CC074
:100460000FB607FCFACFE889F989808185FFF5CFBF
:10047000CE010E94DC01F1CFEB8DEC0FFD2FF11DC1
:10048000E35AFF4FF0829FB7F8940B8FEA89FB89FC
:1004900080818062CFCFCF93DF93EC01888D88235A
:1004A000B9F0AA89BB89E889F9898C9185FD03C0D7
:1004B000808186FD0DC00FB607FCF7CF8C9185FFBC
:1004C000F2CF808185FFEDCFCE010E94DC01E9CF24
:1004D000DF91CF91089580E090E0892B29F00E9470
:1004E000D20181110E94000080E090E0892B49F048
:1004F00080E090E0892B29F00E94000081110E9489
:10050000000080E090E0892B49F080E090E0892BAA
:1005100029F00E94000081110E94000080E090E01C
:10052000892B49F080E090E0892B29F00E9400009F
:1005300081110C94000008958150823108F05AC056
:10054000E82FF0E08827E855FD4F8F4F0C94AB095A
:10055000C802CC02BA02C002C402FA02CF02D5021B
:10056000D902DF02E302E702ED02F102FA02F5022C
:10057000FB02FF02809180008F77809380000895B6
:10058000809180008F7DF9CF80918000877FF5CFAB
:1005900084B58F7784BD089584B58F7DFBCF80911E
:1005A000B0008F778093B00008958091B0008F7D68
:1005B000F9CF809190008F7780939000089580917B
:1005C00090008F7DF9CF80919000877FF5CF80914B
:1005D000A0008F778093A00008958091A0008F7D68
:1005E000F9CF8091A000877FF5CF809120018F7790
:1005F000809320010895809120018F7DF9CF809113
:100600002001877FF5CFCF93DF93E4E2F2E084917E
:10061000EEEDF1E0D491E8E9F1E0C491CC23A1F052
:1006200081110E949C02EC2FF0E0EE0FFF1FE458B6
:10063000FE4FA591B491EC91ED2381E090E009F497
:1006400080E0DF91CF91089580E090E0FACF1F9392
:10065000CF93DF93E4E2F2E09491EEEDF1E0D491F8
:10066000E8E9F1E0C491CC23B9F0182F992319F0EF
:10067000892F0E949C02EC2FF0E0EE0FFF1FEE5935
:10068000FE4FA591B4918FB7F894EC91111108C069
:10069000D095DE23DC938FBFDF91CF911F9108951A
:1006A000DE2BF8CF3FB7F89480914102909142023F
:1006B000A0914302B091440226B5A89B05C02F3FEC
:1006C00019F00196A11DB11D3FBFBA2FA92F982F78
:1006D0008827BC01CD01620F711D811D911D42E073
:1006E000660F771F881F991F4A95D1F708958F923B
:1006F0009F92AF92BF92CF92DF92EF92FF924B0107
:100700005C010E9452036B017C010E9452036C1930
:100710007D098E099F09683E734081059105A8F304
:1007200021E0821A9108A108B10888EEC80E83E082
:10073000D81EE11CF11C81149104A104B10429F715
:10074000FF90EF90DF90CF90BF90AF909F908F90F1
:100750000895FC0101900020E9F73197AF01481B93
:10076000590BBC0182E592E00C9468018F929F9234
:10077000AF92BF920F931F93CF93DF93CDB7DEB7A6
:10078000A1970FB6F894DEBF0FBECDBF19A24230BD
:1007900008F44AE08E010F5D1F4F842E912CB12C7E
:1007A000A12CA50194010E944D07E62FB901CA01B1
:1007B000EA30F4F4E05DD801EE938D01232B242B75
:1007C000252B79F790E080E0109719F0CD010E9479
:1007D000A903A1960FB6F894DEBF0FBECDBFDF917F
:1007E000CF911F910F91BF90AF909F908F900895E0
:1007F000E95CE1CF4F925F926F927F928F929F92CE
:10080000AF92BF92CF92DF92EF92FF920F931F931E
:10081000CF936B017C01742EAC019B010E94A60951
:10082000882399F082E192E0CF911F910F91FF9080
:10083000EF90DF90CF90BF90AF909F908F907F9080
:100840006F905F904F900C94A90346015701E89474
:10085000B7F82FEF3FEF4FE75FE7C501B4010E9404
:10086000A60981110DC02FEF3FEF4FE75FE7C501EC
:10087000B4010E94DC0718161CF486E192E0D4CF84
:100880002FEF3FEF4FE75FE4C701B6010E94340945
:1008900018161CF48AE192E0C7CF2FEF3FEF4FE725
:1008A0005FECC701B6010E94DC0787FDF3CF20E0B3
:1008B00030E0A901C701B6010E94DC0710E000E0AA
:1008C00087FF0AC06DE282E592E00E94FE018C0182
:1008D000F7FAF094F7F8F094C0E060E070E080E0A0
:1008E0009FE37C1641F020E030E040E251E40E94BA
:1008F000E107CF5FF6CFA70196010E9470072B0199
:100900003C010E9453084B015C014AE00E94B6037F
:100910007C01E00EF11ECC23C1F1C501B4010E949F
:1009200082089B01AC01C301B2010E946F074B0119
:100930005C016EE282E592E00E94FE01E80EF91E83
:10094000C15018F120E030E040E251E4C501B401AB
:100950000E9439092B013C010E9453084B01B12C24
:10096000A12C4AE0C501B4010E94B603E80EF91EAD
:10097000C501B4010E9482089B01AC01C301B20110
:100980000E946F074B015C01DBCFC701CF911F9124
:100990000F91FF90EF90DF90CF90BF90AF909F901E
:1009A0008F907F906F905F904F9008951F920F925D
:1009B0000FB60F9211240BB60F922F933F934F93C4
:1009C0005F936F937F938F939F93AF93BF93EF93B7
:1009D000FF9382E592E00E94DC01FF91EF91BF91CD
:1009E000AF919F918F917F916F915F914F913F91C7
:1009F0002F910F900BBE0F900FBE0F901F90189568
:100A00001F920F920FB60F9211240BB60F922F93D5
:100A10008F939F93EF93FF93E0916202F0916302B3
:100A20008081E0916802F091690282FD1DC0908191
:100A300080916B028F5F8F7320916C02821741F05F
:100A4000E0916B02F0E0EE5AFD4F958F80936B02C0
:100A5000FF91EF919F918F912F910F900BBE0F906F
:100A60000FBE0F901F9018958081F2CF1F920F92AA
:100A70000FB60F9211242F933F938F939F93AF93B1
:100A8000BF9380913D0290913E02A0913F02B091B0
:100A9000400230913C0223E0230F2D3758F5019698
:100AA000A11DB11D20933C0280933D0290933E0214
:100AB000A0933F02B0934002809141029091420284
:100AC000A0914302B09144020196A11DB11D8093F3
:100AD000410290934202A0934302B0934402BF911B
:100AE000AF919F918F913F912F910F900FBE0F90DB
:100AF0001F90189526E8230F0296A11DB11DD2CF95
:100B0000789484B5826084BD84B5816084BD85B5E8
:100B1000826085BD85B5816085BD80916E008160F4
:100B200080936E001092810080918100826080939A
:100B3000810080918100816080938100809180009C
:100B40008160809380008091B10084608093B100C7
:100B50008091B00081608093B000809191008260AC
:100B600080939100809191008160809391008091A9
:100B700090008160809390008091A10082608093BA
:100B8000A1008091A10081608093A1008091A000CC
:100B900081608093A0008091210182608093210177
:100BA00080912101816080932101809120018160E9
:100BB0008093200180917A00846080937A008091F4
:100BC0007A00826080937A0080917A0081608093BD
:100BD0007A0080917A00806880937A001092C10038
:100BE000E0916202F091630282E08083E0915E0214
:100BF000F0915F021082E0916002F09161028FEC4F
:100C0000808310926A02E0916602F091670286E0AA
:100C10008083E0916402F09165028081806180832D
:100C2000E0916402F0916502808188608083E091A8
:100C30006402F0916502808180688083E0916402A3
:100C4000F091650280818F7D80835EED252E51E0DD
:100C5000352E68E9662E61E0762E7BE9E72EF12CD1
:100C6000CC24C394D12C10924D0210924E021092BB
:100C70004F021092500210925102F1012491F3019F
:100C80008491882399F090E0880F991FFC01E85B1C
:100C9000FE4FA591B491FC01EE59FE4F85919491C0
:100CA0008FB7F8949C91292B2C938FBF80E00E94E2
:100CB000270364E170E080E090E00E94770381E028
:100CC0000E942703C7010197F1F7F1012491F30175
:100CD00084918823C1F090E0880F991FFC01E85BA4
:100CE000FE4FA591B491FC01EE59FE4FC591D491F0
:100CF0003FB7F8949C91822F809598239C9398817C
:100D0000892388833FBFC1E1D7E20E940303892B77
:100D100089F52197D1F78EE192E00E94A9036091B5
:100D2000490270914A0280914B0290914C0242E03C
:100D30000E94FA038DE292E00E94A90380E392E010
:100D40000E94A9036091450270914602809147027A
:100D50009091480242E00E94FA038DE292E00E94E4
:100D6000A90368EE73E080E090E00E9477030E94A0
:100D70006B0279CFC1E1D7E20E940303019719F416
:100D80002197D1F7C8CFC8E2D0E097E0592E412C87
:100D900001E117E20E940303892B21F4015011099C
:100DA000C9F7B9CF0E9452034B015C0101E117E280
:100DB0000E940303019721F401501109C9F7ABCF39
:100DC0000E945203681979098A099B0969327105E1
:100DD0008105910568F0E42DF0E0EB5BFD4F808527
:100DE0009601052C01C0220F0A94EAF7822B808716
:100DF000511024C0439487E0582E219749F6609102
:100E00004D0270E090E080E00E948208609345020D
:100E100070934602809347029093480260914F027C
:100E200070E090E080E00E94820860934902709335
:100E30004A0280934B0290934C026DCF5A94DDCFBF
:100E4000E2E5F2E01382128288EE93E0A0E0B0E0E7
:100E500084839583A683B78384E092E09183808323
:100E600085EC90E09587848784EC90E0978786876F
:100E700080EC90E0918B808B81EC90E0938B828B67
:100E800082EC90E0958B848B86EC90E0978B868B40
:100E9000118E128E138E148E0895A1E21A2EAA1BA3
:100EA000BB1BFD010DC0AA1FBB1FEE1FFF1FA2171A
:100EB000B307E407F50720F0A21BB30BE40BF50B17
:100EC000661F771F881F991F1A9469F760957095A0
:100ED000809590959B01AC01BD01CF0108955058BC
:100EE000BB27AA270E9487070C94FA080E94EC08E7
:100EF00038F00E94F30820F039F49F3F19F426F4EB
:100F00000C94E9080EF4E095E7FB0C94E308E92F54
:100F10000E940B0958F3BA176207730784079507F5
:100F200020F079F4A6F50C942D090EF4E0950B2E23
:100F3000BA2FA02D0B01B90190010C01CA01A0012B
:100F40001124FF27591B99F0593F50F4503E68F186
:100F50001A16F040A22F232F342F4427585FF3CFC7
:100F6000469537952795A795F0405395C9F77EF498
:100F70001F16BA0B620B730B840BBAF09150A1F0E1
:100F8000FF0FBB1F661F771F881FC2F70EC0BA0F67
:100F9000621F731F841F48F4879577956795B795EF
:100FA000F7959E3F08F0B0CF9395880F08F09927EA
:100FB000EE0F9795879508950E94BF0808F481E089
:100FC00008950E94F5070C94FA080E94F30858F05F
:100FD0000E94EC0840F029F45F3F29F00C94E308EC
:100FE00051110C942E090C94E9080E940B0968F326
:100FF0009923B1F3552391F3951B550BBB27AA27D2
:1010000062177307840738F09F5F5F4F220F331F0B
:10101000441FAA1FA9F335D00E2E3AF0E0E832D0D3
:1010200091505040E695001CCAF72BD0FE2F29D0D6
:10103000660F771F881FBB1F261737074807AB07A8
:10104000B0E809F0BB0B802DBF01FF2793585F4F1D
:101050003AF09E3F510578F00C94E3080C942E0969
:101060005F3FE4F3983ED4F3869577956795B795FF
:10107000F7959F5FC9F7880F911D9695879597F90A
:101080000895E1E0660F771F881FBB1F6217730783
:101090008407BA0720F0621B730B840BBA0BEE1F98
:1010A00088F7E09508950E94130988F09F5798F0FB
:1010B000B92F9927B751B0F0E1F0660F771F881F5D
:1010C000991F1AF0BA95C9F714C0B13091F00E9477
:1010D0002D09B1E008950C942D09672F782F8827EA
:1010E000B85F39F0B93FCCF3869577956795B3959E
:1010F000D9F73EF490958095709561957F4F8F4F0D
:101100009F4F0895E89409C097FB3EF49095809511
:10111000709561957F4F8F4F9F4F9923A9F0F92FBD
:1011200096E9BB279395F695879577956795B7953B
:10113000F111F8CFFAF4BB0F11F460FF1BC06F5F21
:101140007F4F8F4F9F4F16C0882311F096E911C033
:10115000772321F09EE8872F762F05C0662371F054
:1011600096E8862F70E060E02AF09A95660F771F68
:10117000881FDAF7880F9695879597F90895990F44
:101180000008550FAA0BE0E8FEEF16161706E80751
:10119000F907C0F012161306E407F50798F0621B72
:1011A000730B840B950B39F40A2661F0232B242B47
:1011B000252B21F408950A2609F4A140A6958FEF66
:1011C000811D811D089597F99F6780E870E060E0B8
:1011D00008959FEF80EC089500240A9416161706D0
:1011E00018060906089500240A9412161306140618
:1011F00005060895092E0394000C11F4882352F07B
:10120000BB0F40F4BF2B11F460FF04C06F5F7F4F32
:101210008F4F9F4F089557FD9058440F551F59F019
:101220005F3F71F04795880F97FB991F61F09F3FD3
:1012300079F087950895121613061406551FF2CFFC
:101240004695F1DF08C0161617061806991FF1CF4C
:1012500086957105610508940895E894BB27662773
:101260007727CB0197F908950E94BF0808F48FEF04
:1012700008950E944C090C94FA080E94EC0838F07A
:101280000E94F30820F0952311F00C94E3080C94CD
:10129000E90811240C942E090E940B0970F3959F04
:1012A000C1F3950F50E0551F629FF001729FBB275D
:1012B000F00DB11D639FAA27F00DB11DAA1F649FF9
:1012C0006627B00DA11D661F829F2227B00DA11DAC
:1012D000621F739FB00DA11D621F839FA00D611D32
:1012E000221F749F3327A00D611D231F849F600D53
:1012F000211D822F762F6A2F11249F5750409AF07C
:10130000F1F088234AF0EE0FFF1FBB1F661F771F07
:10131000881F91505040A9F79E3F510580F00C94D2
:10132000E3080C942E095F3FE4F3983ED4F38695CE
:1013300077956795B795F795E7959F5FC1F7FE2B72
:10134000880F911D9695879597F908950E94BF087B
:10135000880B990B0895EE0FFF1F881F8BBF079016
:0A136000F691E02D1994F894FFCFE8
:10136A0000000000FE01680195014B02C601A401BC
:10137A00B8016E616E00696E66006F76660054652C
:10138A006D7065726174757265203D20000D0A00EA
:0C139A0048756D6964697479203D20007D
:00000001FF
